:1000000030A300209D600000C5FA01008960000057
:10001000896000008960000089600000896000003C
:100020000000000000000000000000005D62000011
:1000300089600000000000001D620000896000006F
:10004000F1630000F1630000F1630000F163000060
:10005000F1630000F1630000F1630000F163000050
:10006000F1630000F1630000F1630000F163000040
:10007000F1630000F1630000F1630000F163000030
:04047C00FFFFFFFF80
:1004800081F0004102E000BF83F0004330B54FEA45
:1004900041044FEA430594EA050F08BF90EA020FB2
:1004A0001FBF54EA000C55EA020C7FEA645C7FEA45
:1004B000655C00F0E2804FEA5454D4EB5555B8BF68
:1004C0006D420CDD2C4480EA020281EA030382EAD9
:1004D000000083EA010180EA020281EA0303362D6B
:1004E00088BF30BD11F0004F4FEA01314FF4801C3E
:1004F0004CEA113102D0404261EB410113F0004F50
:100500004FEA03334CEA133302D0524263EB430306
:1005100094EA050F00F0A780A4F10104D5F1200EA4
:100520000DDB02FA0EFC22FA05F2801841F10001FF
:1005300003FA0EF2801843FA05F359410EE0A5F1D3
:1005400020050EF1200E012A03FA0EFC28BF4CF004
:10055000020C43FA05F3C01851EBE37101F00045BA
:1005600007D54FF0000EDCF1000C7EEB00006EEBC7
:100570000101B1F5801F1BD3B1F5001F0CD3490851
:100580005FEA30004FEA3C0C04F101044FEA4452A8
:1005900012F5800F80F09A80BCF1004F08BF5FEA2F
:1005A000500C50F1000041EB045141EA050130BD0F
:1005B0005FEA4C0C404141EB0101013C28BFB1F521
:1005C000801FE9D291F0000F04BF01460020B1FA6C
:1005D00081F308BF2033A3F10B03B3F120020CDA3F
:1005E0000C3208DD02F1140CC2F10C0201FA0CF01D
:1005F00021FA02F10CE002F11402D8BFC2F1200C82
:1006000001FA02F120FA0CFCDCBF41EA0C01904037
:10061000E41AA2BF01EB0451294330BD6FEA040480
:100620001F3C1CDA0C340EDC04F11404C4F120026B
:1006300020FA04F001FA02F340EA030021FA04F37D
:1006400045EA030130BDC4F10C04C4F1200220FAD4
:1006500002F001FA04F340EA0300294630BD21FA12
:1006600004F0294630BD94F0000F83F4801306BFD8
:1006700081F480110134013D4EE77FEA645C18BFCC
:100680007FEA655C29D094EA050F08BF90EA020F63
:1006900005D054EA000C04BF1946104630BD91EA5B
:1006A000030F1EBF0021002030BD5FEA545C05D15E
:1006B0004000494128BF41F0004130BD14F580049D
:1006C0003CBF01F5801130BD01F0004545F0FE4111
:1006D00041F470014FF0000030BD7FEA645C1ABF46
:1006E000194610467FEA655C1CBF0B46024650EA7D
:1006F000013406BF52EA033591EA030F41F40021A9
:1007000030BD00BF90F0000F04BF0021704730B52E
:100710004FF4806404F132044FF000054FF0000103
:1007200050E700BF90F0000F04BF0021704730B5C4
:100730004FF4806404F1320410F0004548BF404299
:100740004FF000013EE700BF42004FEAE2014FEAEE
:1007500031014FEA02701FBF12F07F4393F07F4FC9
:1007600081F06051704732F07F4208BF704793F0CC
:100770007F4F04BF41F40021704730B54FF46074DF
:1007800001F0004521F000411CE700BF50EA0102E2
:1007900008BF704730B54FF000050AE050EA01028B
:1007A00008BF704730B511F0004502D5404261EBFB
:1007B00041014FF4806404F132045FEA915C3FF43C
:1007C000D8AE4FF003025FEADC0C18BF03325FEAD9
:1007D000DC0C18BF033202EBDC02C2F1200300FA8A
:1007E00003FC20FA02F001FA03FE40EA0E0021FAAF
:1007F00002F11444BDE600BF70B54FF0FF0C4CF49D
:10080000E06C1CEA11541DBF1CEA135594EA0C0F4E
:1008100095EA0C0F00F0DEF82C4481EA030621EA89
:100820004C5123EA4C5350EA013518BF52EA0335C4
:1008300041F4801143F4801338D0A0FB02CE4FF076
:100840000005E1FB02E506F00042E0FB03E54FF0A6
:100850000006E1FB03569CF0000F18BF4EF0010E9E
:10086000A4F1FF04B6F5007F64F5407404D25FEA9A
:100870004E0E6D4146EB060642EAC62141EA55514D
:100880004FEAC52040EA5E504FEACE2EB4F1FD0C8F
:1008900088BFBCF5E06F1ED8BEF1004F08BF5FEA0D
:1008A000500E50F1000041EB045170BD06F00046BF
:1008B00046EA010140EA020081EA0301B4EB5C046C
:1008C000C2BFD4EB0C0541EA045170BD41F4801164
:1008D0004FF0000E013C00F3AB8014F1360FDEBF89
:1008E000002001F0004170BDC4F10004203C35DA65
:1008F0000C341BDC04F11404C4F1200500FA05F3E8
:1009000020FA04F001FA05F240EA020001F0004288
:1009100021F0004110EBD37021FA04F642EB0601FE
:100920005EEA430E08BF20EAD37070BDC4F10C0428
:10093000C4F1200500FA04F320FA05F001FA04F2EC
:1009400040EA020001F0004110EBD37041F10001D8
:100950005EEA430E08BF20EAD37070BDC4F12005E3
:1009600000FA05F24EEA020E20FA04F301FA05F24B
:1009700043EA020321FA04F001F0004121FA04F2F3
:1009800020EA020000EBD3705EEA430E08BF20EAC3
:10099000D37070BD94F0000F0FD101F000464000FD
:1009A00041EB010111F4801F08BF013CF7D041EA7F
:1009B000060195F0000F18BF704703F00046520083
:1009C00043EB030313F4801F08BF013DF7D043EA54
:1009D0000603704794EA0C0F0CEA135518BF95EA0A
:1009E0000C0F0CD050EA410618BF52EA4306D1D191
:1009F00081EA030101F000414FF0000070BD50EAB0
:100A0000410606BF1046194652EA430619D094EA39
:100A10000C0F02D150EA013613D195EA0C0F05D123
:100A200052EA03361CBF104619460AD181EA030177
:100A300001F0004141F0FE4141F470014FF000002F
:100A400070BD41F0FE4141F4780170BD70B54FF0CA
:100A5000FF0C4CF4E06C1CEA11541DBF1CEA13554A
:100A600094EA0C0F95EA0C0F00F0A7F8A4EB05042C
:100A700081EA030E52EA03354FEA013100F0888023
:100A80004FEA03334FF0805545EA131343EA1263EC
:100A90004FEA022245EA111545EA10654FEA0026A1
:100AA0000EF000419D4208BF964244F1FD0404F55A
:100AB000407402D25B084FEA3202B61A65EB0305B6
:100AC0005B084FEA32024FF480104FF4002CB6EB73
:100AD000020E75EB030E22BFB61A754640EA0C00F3
:100AE0005B084FEA3202B6EB020E75EB030E22BF33
:100AF000B61A754640EA5C005B084FEA3202B6EB74
:100B0000020E75EB030E22BFB61A754640EA9C0032
:100B10005B084FEA3202B6EB020E75EB030E22BF02
:100B2000B61A754640EADC0055EA060E18D04FEAC0
:100B3000051545EA16754FEA06164FEAC30343EA60
:100B400052734FEAC2025FEA1C1CC0D111F4801F2D
:100B50000BD141EA00014FF000004FF0004CB6E726
:100B600011F4801F04BF01430020B4F1FD0C88BFC5
:100B7000BCF5E06F3FF6AFAEB5EB030C04BFB6EBD0
:100B8000020C5FEA500C50F1000041EB045170BDC3
:100B90000EF0004E4EEA113114EB5C04C2BFD4EBF0
:100BA0000C0541EA045170BD41F480114FF0000E74
:100BB000013C90E645EA060E8DE60CEA135594EAF0
:100BC0000C0F08BF95EA0C0F3FF43BAF94EA0C0FF3
:100BD0000AD150EA01347FF434AF95EA0C0F7FF468
:100BE00025AF104619462CE795EA0C0F06D152EABC
:100BF00003353FF4FDAE1046194622E750EA4106A0
:100C000018BF52EA43067FF4C5AE50EA41047FF4B0
:100C10000DAF52EA43057FF4EBAE12E74A0011D262
:100C200012F5001211D20DD56FF47873B3EB625246
:100C30000ED44FEAC12343F0004343EA505323FA52
:100C400002F070474FF00000704750EA013002D1C7
:100C50004FF0FF3070474FF0000070477BB972B91A
:100C60000029BEBF00204FF0004106E008BF002869
:100C70001CBF6FF000414FF0FF3000F057B8ADF1EE
:100C8000080C6DE904CE002909DB002B1ADB00F00B
:100C90004FF8DDF804E0DDE9022304B0704740427C
:100CA00061EB4101002B1BDB00F042F8DDF804E0B2
:100CB000DDE9022304B0404261EB4101524263EBA3
:100CC00043037047524263EB430300F031F8DDF811
:100CD00004E0DDE9022304B0404261EB41017047CA
:100CE000524263EB430300F023F8DDF804E0DDE952
:100CF000022304B0524263EB4303704753B94AB92D
:100D0000002908BF00281CBF4FF0FF314FF0FF3013
:100D100000F00CB8ADF1080C6DE904CE00F008F855
:100D2000DDF804E0DDE9022304B07047704700BF3E
:100D30002DE9F04786468C460846089E15467446BF
:100D40001946002B40F0C1808542B2FA82F245D9A3
:100D50004AB1C2F1200300FA02FC954094402EFAF9
:100D600003F343EA0C0C4FEA154EA8B2230CBCFB6C
:100D7000FEF80EFB18CC08FB00F943EA0C4399453A
:100D800028D9EB1808F1FF3704D2994502D9A8F108
:100D900002072B44A3EB0903A4B2B3FBFEFC0EFB3A
:100DA0001C330CFB00F044EA0344A04214D92C1974
:100DB0000CF1FF3304D2A04202D9ACF102032C445F
:100DC000241A43EA07401EB1D44000233460736004
:100DD000BDE8F0874746DDE76346F1E792BB431B7A
:100DE00001214FEA154EAFB2200CB3FBFEFC0EFB07
:100DF0001C330CFB07F840EA0343984561D9EB1814
:100E00000CF1FF3004D2984502D9ACF102002B441A
:100E1000A3EB0803A4B2B3FBFEFC0EFB1C330CFBDC
:100E200007F744EA0344A7424DD92C190CF1FF33CC
:100E300004D2A74202D9ACF102032C44E41B43EADA
:100E40000040C0E7C2F120039540944020FA03F12E
:100E50002EFA03F34FEA154E9040AFB20343B1FBB5
:100E6000FEFC0EFB1C10190C0CFB07F841EA0041BC
:100E7000884522D969180CF1FF3004D2884502D97F
:100E8000ACF102002944A1EB08019BB2B1FBFEFCCE
:100E90000EFB1C110CFB07F743EA01439F420ED9DE
:100EA000EB180CF1FF3104D29F4202D9ACF10201E0
:100EB0002B44DB1B41EA004193E76046E3E76146D0
:100EC000F7E76046A4E76346B8E7834206D916B958
:100ED000002108467CE7C6E900E0F9E7B3FA83F7AA
:100EE0008FB9834201D3724508D8BEEB020460EB90
:100EF000030301209C461EB9002169E73846FAE742
:100F0000C6E9004CF8E7C7F1200CBB400EFA07F524
:100F100022FA0CF42EFA0CF1BA401C4320FA0CF31E
:100F2000B8404FEA144901431FFA84FEB3FBF9F8B5
:100F300009FB18300B0C08FB0EFA43EA00439A45F4
:100F400040D9E31808F1FF3004D29A4502D9A8F13C
:100F500002002344A3EB0A0389B2B3FBF9F809FBAF
:100F6000183308FB0EFE41EA03418E452CD9611867
:100F700008F1FF3304D28E4502D9A8F102032144BF
:100F800043EA0040A1EB0E01A0FB02984145CE468A
:100F9000434602D306D14D4504D20138B9EB020EC7
:100FA00068EB0403002EA7D0B5EB0E0261EB030142
:100FB00001FA0CFC22FA07F3F9404CEA0303C6E9F4
:100FC000003199E74046C5E74346D9E710F8012BC1
:100FD00011F8013B012A28BF9A42F7D0D01A704776
:100FE000034611F8012B03F8012B002AF9D17047B1
:100FF000034613F8012B002AFBD1181A0138704759
:101000002DE9F04704460F46164688B028F0A6FCA6
:101010004FF47A75A0FB050C47F6122205FB01C1BF
:101020000023FFF76BFE012F80460D4607D10246D5
:101030000B46204626491DF0F5FB002011E076689E
:1010400024483146FFF7C2FF70B131462248FFF70E
:10105000BDFF48B12046324620491DF0FFFB6FF02E
:10106000040008B0BDE8F087404617A3D3E9002389
:101070002946FFF7F3FD06460D4610461946184A65
:101080000023FFF7EBFD80460F46104619464EF64B
:1010900060220023FFF7E2FD82468946104619468A
:1010A0004FF47A720023FFF7D9FDCDE902A9CDE90B
:1010B0000623CDE9040132462B462046CDE90087C0
:1010C00008491DF0AFFBB8E7005C260500000000F2
:1010D000E3CA0200F4CA0200F7CA020000CB020011
:1010E00080EE360018CB02002DE9F04F914689B012
:1010F000DFF8D4A098469DF848303D2204460F46BC
:101100004846514605931FF046FADFF8C0B0054641
:101110001222594640461FF03EFA00239D420646E1
:10112000CDE9063307DA4A46294920461DF096FBE9
:1011300009B0BDE8F08F002802DA42462549F4E7FD
:10114000A9B282B2BB68D3F80480B8F1000F13D003
:10115000384606ABC04790B110F1160F02D1059B7F
:10116000002BE5D000905BF8263020465AF8252069
:1011700019491DF073FBDBE76FF05700F2E70798A2
:10118000FFF7D0FA0EA3D3E90023FFF75FFC8046F8
:1011900006988946FFF7C6FA02460B46404649467E
:1011A000FFF774F9CDE902015BF826302046009381
:1011B0005AF825303A6809491DF026FBB8E700BF08
:1011C0000000000080842E4124030020DC02002067
:1011D0003EE7020054E702006CE7020099E70200D4
:1011E0002DE9F04F0028D3B09B46159106DA374918
:1011F000586853B0BDE8F04F1DF030BB18688368E5
:101200005B69002B36D1324B1F930024314D324E97
:10121000324F1F9BDB680BB10C2C3AD10025304BB1
:101220001093ABB2119300230A2D219343D840F2BF
:101230007773EB40DB0700F17482119A1F9BADF8C6
:1012400080200022ADF882205B68209823AA22A982
:1012500098470346002832D1229A802A40F23D81E5
:101260008021CDE900212A461E49DBF804001DF04B
:10127000F5FA24E01FA998470028C6D0DBF8003013
:1012800019491A68DBF804001DF0E8FA53B0BDE80C
:10129000F08F1598A1B2984758B10C236343EB58CF
:1012A0002246002B08BF33463946DBF804001DF008
:1012B000ABFA0134ADE7ABB2253B022BBDD8109B96
:1012C000013504333C2D1093ABD1DFE77FE90200F9
:1012D000FCBA02006CBA020077E90200ACE9020035
:1012E00024030020C8E902008CE90200382224A867
:1012F000219128F043FD119B23F00404A4B21F9B0D
:10130000ADF882609F68119B1598ADF8803032ABC4
:1013100000932099012321AAB8470028DDF898807E
:1013200000F3EF80DDE928014FEAE87A42465346B0
:10133000FFF7E4FCDDE924790646DDE92A0153469E
:101340004246FFF78BFCDBF8043004461393BDF8EC
:1013500048301493F319169349F100030F2D179396
:1013600000F05E8100F23881119B23F00403032B0F
:1013700002D00B2D40F08681DDE92C010123CDE95F
:1013800032799DF9C0704246ADF8D0305346CDE970
:1013900037648DF8D870FFF761FC424653463990A8
:1013A0008146DDE92E01FFF759FC109BB04A1B680E
:1013B00006461B93AF4B3A9012EA240238BF1A46F6
:1013C000002CB8BF6442002F189280F207817B4244
:1013D000DC400023E20F42EA4303002124F00040F6
:1013E0001C93FFF7D3F99EA3D3E90023FFF704FA78
:1013F0009DA3D3E90023FFF729FBFFF70FFC9C4ACD
:101400009C4B1D9012EA290238BF1A46B9F1000F11
:10141000B8BFC9F10009002F199280F2EA807B421F
:1014200029FA03F000234FEAD079002120F0004090
:1014300049EA4309FFF7AAF989A3D3E90023FFF793
:10144000DBF989A3D3E90023FFF700FBFFF7E6FBF5
:10145000874A884B86EAE67412EA260238BF1A46A3
:10146000002F82461A92A4EBE67480F2CE8000260A
:101470007B42DC4024F000400021FFF787F978A38D
:10148000D3E90023FFF7B8F977A3D3E90023FFF7E7
:10149000DDFAFFF7C3FB1A9BE40FCDE90BA3199B01
:1014A0000E9009931D9B44EA460408931C9B2A4610
:1014B0000793189BCDE901780693169B6E49049318
:1014C000179B13980593149B0D9400931B9BCDF8C9
:1014D00028901DF099F9129B01331293119ABDF8CF
:1014E00048601F9BADF88020ADF8826020991B6892
:1014F00015980DF17A029847014600283FF4F6AEA0
:10150000DDE60F2D2A9908F10103DDE9280730D027
:101510002DD8032C01D00B2D44D1B8F1000F03D1ED
:10152000DDE93289CDE9248926939DF8D830389AAF
:101530008DF8C030379BC31847F10007CDE9283735
:101540002B9B891843EBE273CDE92A1339992C9B25
:101550002D9A5B1842EBE172CDE92C323A992E9B21
:101560002F9A5B1842EBE172CDE92E32C7E6282DA7
:10157000D2E7B8F1000F03D1DDE93289CDE9248942
:101580002693369B2B9AC31847F10007CDE92837DD
:101590009DF8DC3003F00103CB1842F10002CDE9E5
:1015A0002A32ACE6B8F1000F03D1DDE93289CDE98A
:1015B000248926939DF8D830389A8DF8C030379B0F
:1015C000C0182B9B47F10007891843EBE273CDE964
:1015D0002807CDE92A1392E6282DCBE6A7F12003B0
:1015E000C7F1200204FA03F324FA02F21343BC40C9
:1015F000F0E6A7F12003C7F1200209FA03F329FA64
:1016000002F2134309FA07F00DE7A7F12006C7F12C
:10161000200304FA06F624FA03F31E43BC4029E72C
:1016200001231C40ADF8D0309DF8DC30049464F305
:1016300000038DF8DC30169BCDF804800293179BD5
:101640002A460393149B0D4900930D4B1398DB6BB3
:10165000CDE9327936961DF0D7F83CE7AFF300803C
:101660000000000080842E410000C0FFFFFFDF412A
:1016700066D0020050CD02001CEA020082EA02009D
:10168000240300200123ADF8D030109BCDE932793E
:10169000CDE93764D3F80090294E2A4B9DF9C070EC
:1016A00016EA240638BF1E46002CB8BF6442002F3D
:1016B0008DF8D87029DA4FF0000A7B42DC4024F024
:1016C00000400021FFF762F819A3D3E90023FFF7D8
:1016D00093F819A3D3E90023FFF7B8F9FFF79EFAAF
:1016E000169BE40F0493179B44EA4A040593149B4A
:1016F000089000932A464B46CDE90664CDE901786F
:10170000114913981DF080F8E5E6A7F1200AC7F10A
:10171000200304FA0AFA24FA03F34AEA030ABC4053
:10172000CDE7109B0135043310937AE5AFF30080C9
:101730000000000080842E410000C0FFFFFFDF4159
:1017400066D0020050CD0200CDEA02002DE9F04340
:1017500087B05C4827F039FE38B95B4803685E07FC
:1017600003D00121594A1CF005FD02AA1746584B27
:1017700018681B7900908DF80430564B03F108056A
:10178000144618685968083303C4AB422246F7D19F
:1017900018681B792060237115F0DEFB0BF07CFBD1
:1017A00016F0C2FF6946064617F058FB00230921D0
:1017B0001A46304621F0E6F916F0A2FC424CDFF85A
:1017C0001881236803F00703022B04D90321424642
:1017D00020461CF0CFFC00213A4801F0F9FD031E21
:1017E00007DA226855070ED0012120463B4A1CF03B
:1017F000CAFC236803F00703022B04D90321204607
:10180000374A1CF0B7FCDFF8DC900021D9F8000063
:1018100001F0DEFD051E0CDA2368580705D02B46C3
:10182000314A012128481CF0AEFC284607B0BDE82B
:10183000F08341F288301AF0A4FF236803F0070315
:10184000022B04D903212046284A1CF093FC0121D5
:10185000D9F8000001F0BCFD051E236804DA590721
:10186000E3D0234A2B46DCE703F00703022B04D91D
:10187000032120461F4A1CF07DFC0121114801F084
:10188000A7FD031E07DA2268520704D00121204673
:10189000174A1CF078FC3946304617F0DFFA64200E
:1018A0001AF06FFF16F02CFC4FF47A701AF069FFF3
:1018B0006946304617F0D2FA64201AF062FF16F03B
:1018C0001FFC7EE764A3020078060020B4C5020076
:1018D0009CC60200A1C60200D4C50200E7C50200F2
:1018E0000EC602003002002025C6020050C60200CB
:1018F00065C602008BC602002DE9F04F046885B072
:10190000A2686B48B2F5004F2CBF08230423551C76
:101910000833A5EBD305B5FA85F5C5F120052B46AF
:10192000894621461BF057FB62481BF054FB0026FA
:101930004FF0010B04F10C0A5AF8043F5BB3002787
:101940001946B8462046039302911BF0B0FA804531
:1019500038BF80460299032220461BF09DFA039B64
:101960000146834207F10107ECD1A3680BFA06F2A6
:10197000B3F5004F34BF04230823013A03F10801F3
:10198000C3EBC803CDE9008302EBD1023B463146ED
:1019900049481BF020FB0136B542CDD1B9F1000F0B
:1019A00036D046481BF017FB0025DFF814810122D2
:1019B000294620461BF070FA2946074620461BF0B0
:1019C00076FAFB0706461FD4A368B3F5004F1DD374
:1019D000012814BF2D272E270022294620461BF060
:1019E0005BFAAB19281A0193009033463A46294610
:1019F00040461BF0F0FAA3689D4209D029462046D4
:101A00001BF055FA0544D2E72A27E5E72D27E3E73F
:101A1000002120461BF04BFA0025D4F8088006462A
:101A2000B8F5004F2CBF4FF0080A4FF0040A2F46BC
:101A300046451ED3B8F5004F34BF042208224FF4A8
:101A40007A7102EBC8027B19D31A500801FB03001C
:101A50000A21B0FBF2F0B0FBF1F201FB12003946B3
:101A6000CDE900202A4617481BF0B5FA05B0BDE8BD
:101A7000F08F0122314620461BF00EFA8146314696
:101A800020461BF014FA19F0010F05D0A5EB0A054A
:101A900005EBC0050644CBE7B8F5004F04D2C30000
:101AA000A7EB0A071F44F5E70128F8D1F2E700BFCA
:101AB000B2C60200DFC602009AC70200B4C7020025
:101AC000C2C70200F0C702002DE9F04F91B00093A9
:101AD00002F004030293C2F3C203013384070546F4
:101AE0000E46DDF868900392059340F0BB81041D1B
:101AF00030B1072909D86FF01B0011B0BDE8F08F95
:101B000001F00706341DC6F10806009B4FF00008DF
:101B10004FF0040A591E4FF0FF3347460193C34666
:101B20005346CDF810800DB1009A22600598002828
:101B300000F3E8809848009A824203D39748824293
:101B4000C0F0E080039AA4EB050E92074FEA9E00D6
:101B500000F103810F2F00F2B180002D00F005810C
:101B600007F140020DEB020C019A0CF8200C0CF866
:101B7000102C049801300490E7E07A285DD84B28B7
:101B80000ED8472859D829282DD8252852D054D8DE
:101B900020287AD02338D0F1000B4BEB000B74E0F7
:101BA0004C382E2849D8DFE800F0704848484848AB
:101BB0004848484848484B48484848484848485991
:101BC000484B4B595959704B6D487048184B184841
:101BD00048827F4B48484B487F0000204FF0000B65
:101BE0004FF0040A38E001222A38C0B202FA00F0AD
:101BF00010EA0E0F49D110F0625C2FD110EA020BEF
:101C000043D06046013C5444B4FBFAF40AFB04F4AC
:101C1000002D61D0A3EB050CA444B4453FF66BAF97
:101C2000002868D1042B47D159F8043B23600423D2
:101C300004342AE0019A013A01924FF0000B24E0AB
:101C400011F8010C6C2834D1002011F8023C8346B5
:101C50006C2BC5D14FF0080A5346D3E709F10709A9
:101C600029F00709073424F00704F9E802AB35B17D
:101C700006982044B0423FF63EAFC4E900AB4FF0B7
:101C8000000B08344FF0080A534611F8010F0028E2
:101C900078D0BBF1000F7FF470AF2528F5D14FF05D
:101CA000010B019B013301934FF0040AECE7584606
:101CB00094E700208346A5E7082B02D06FF01500BB
:101CC0001BE709F1070929F00709F9E80223C4E92C
:101CD000002308230834D8E768B9042B02D109F19E
:101CE0000409A4E7082BE9D109F1070929F007093C
:101CF00009F10809EDE7059A013A059259F8042B14
:101D0000009210E7039A900720D54FF0010CA4EB46
:101D1000050E4FEA9E00BEF5007FCFD20F2FCDD823
:101D2000F5B107F140020DEB020E019AC0B20EF8B8
:101D3000200C0EF8102CBCF1000F3FF41AAF60F02D
:101D40007F000EF8200C08F101080137C5F10802E8
:101D50004FF6DA7E0434069297E74FF0000CDAE78C
:101D6000BCF1000F01D00136EFE7029802360028DF
:101D7000EBD10098CDE90631FFF73AF9DDE90631FC
:101D80000644E2E7631BB3F5806F97D245B9A6F12D
:101D90000804E018B1E600BFDCA10200F04803002F
:101DA000029A9B0828602B709DF81030C2B1EB702E
:101DB00085F80280B8F1000F05D0002208A8C5F10F
:101DC000010C97420ED14FF0000AC5F101030DF14D
:101DD000200901930DF1300B574512D1601B8CE6A1
:101DE0006B70E5E710F8013B190608D504EB0C0E03
:101DF000B64503F07F033FF67EAE04F8013B0132A7
:101E0000DFE7B8F1000F03D099F90020002A17DBB3
:101E1000029BD3B11AF80B2004F8012B0022019B7E
:101E200098182044B0423FF666AE99F80000009939
:101E300004F8010B2046039227F079FF039A14441B
:101E40000AF1010A09F10109C6E799F8002055F8DD
:101E500022300093029B009845F82230FFF7C8F823
:101E6000421CDCE76FF00D0047E600BF2DE9F04FA4
:101E700097B000AFD7F880B03B62CBF3C003044605
:101E8000894690F802A0FA62BB6141B945780078B2
:101E90000AEB800020444D4517D8A0EB0409E378F5
:101EA000FB61BAF1000F02D01BF0010F16D1FB69E4
:101EB00053BBFB6A1BB1494620463A6A98474D46D8
:101EC00028465C37BD46BDE8F08F461C3046FFF71C
:101ED0008FF80130304409F10109DCE762682378AA
:101EE0007A62FA6A9900796104EB8301002A40F072
:101EF00005810E464FF000084D4601EB0A094E459C
:101F000050D101EB0A0610E01BF0020FD1D023786C
:101F10009A007A61626804EB83017A62FA6A002AA5
:101F20007BD14D46904601EB0A061BF0050F0CBF16
:101F300002230123FB62FB6906EB430A0BF0020359
:101F4000BB625645BCD016F8021B16F8013C54F88B
:101F500023909B4B994502D39A4B99453AD3BB6941
:101F6000002B44D0786A1BF00FF800283FD0964829
:101F7000036813F0060F13D0E9468AB06A46934B04
:101F800053617B6AC2E906314FF400731384904BAE
:101F900042F8103F00234FF4125100F04FFFCD469E
:101FA000023DCEE716F8013BF96254F82300FFF733
:101FB0001FF8D7F88430F96A01304BB1D7F8883070
:101FC00098453EBFD7F8843023F8180008F101087F
:101FD000054494E7BB6923B1786A1AF0D5FF00285D
:101FE000C5D11BF0010F05D1FB6AED1AA9E7BB6A49
:101FF000002BA6D04846FEF7FBFFD7F8843053B13C
:10200000D7F8883098453FBFD7F88420431C22F882
:10201000183008F10108054493E7BAF1000F73D0B6
:102020001BF0040673D0D046002607F14800524644
:102030003B61B96227F07BFEB96A3B6901EB0A029A
:10204000BA62FA69F9695200FA60BA6A02EB4102AF
:102050003A610BF00202BA603A69B96A8A4258D111
:1020600062781BF0020F18BF00217A6208BF4FEAA6
:102070005801B2181BF0010FD2B240F09F801BF044
:10208000040F14BF40460020BB616270A070E17075
:1020900020463A6A7969FB6A9847051EFFF610AF39
:1020A000BB69414623707B6A3A6A6370FB6984F8B6
:1020B00002A0E37007F14800FB6A9847B0F10008FE
:1020C000C0F2B4807B69A9EB0A01C91AFB683A6ABD
:1020D000C91AD7E90A0398470028C0F2A9804FF02F
:1020E000000BA84408EB000507F1380AB34571D38B
:1020F00000213A6A0846FB6A9847E1E656464FF0E7
:10210000000807F1380092E75646D04696E7B046F9
:1021100094E7BA6A12F8021B12F8015CBA6254F82A
:102120002500274A904202D3264A90421ED3BA691C
:1021300032B1786A7B601AF027FF7B6800288BD168
:10214000BA6802BB08F1280207F1300C08F101005F
:10215000944407F1580208F1020852FA80F00CF892
:10216000101C5FFA88F800F8105C75E7BA693AB19C
:10217000786A7B601AF008FF7B6800287FF46CAFF8
:102180001BF0010F09D006F1280207F13000711C85
:10219000161806F8205CCEB25EE71BF0040F3FF481
:1021A0005BAF08F1280207F1300008F1010102EBF2
:1021B000000808F8105C5FFA81F84DE7002063E73B
:1021C000DCA10200F04803008006002038C80200AD
:1021D000040000011BF80A3054F8239087F83730C8
:1021E000D7F88430FBB133F81B8001213A6AFB6ACF
:1021F00007F13700984700281ADB0544B8F1000FB3
:1022000006D14846FEF7F4FE00F101081FFA88F8EF
:10221000414648463A6AFB6A9847002808DB05446D
:102220000BF1010B62E7D7F88480DEE7454647E60D
:10223000054645E6014B1860704700BF3402002098
:1022400080B505460E461746984618F0AFFC034683
:1022500027F0BAFF0446DFF81890424649F80030EC
:1022600039463046A84754F8090003F085FF00BFFF
:10227000080000002DE987480646EFF3118520236A
:1022800083F31288BFF36F8F4FF0FF384FF0FF39A1
:10229000284F00F1080A012150461BF098F906F179
:1022A000140B0446002836D0014650461BF036FA7F
:1022B0002046BB68A360B36940F828B963601C601E
:1022C000B461BB6854F8282C9A7354F8242C1A6112
:1022D0001A7B22F010021A7385F31188BFF36F8FF7
:1022E00054F8203C9847EFF31185202383F312889C
:1022F000BFF36F8FBB681B7B13F01003CBD1D4E906
:1023000000210A605160C4E90033A360A4F1180001
:1023100017F08EFEBFE7324629463046CDE90089E8
:1023200018F0B0FAEFF31185202383F31288BFF37E
:102330006F8FB0E73C74002010B5044618220021CE
:10234000083027F01BFD044BC4E90044E36004F1AE
:102350001403C4E9053310BDB1D4010070B50446BF
:10236000E56988B0084645F3400611461A46002341
:102370006FF00F05CDE90043CDE902350493CDE9B7
:102380000666024B18F03AF908B070BD75220000DD
:102390002DE9F0474FF0D0081C4C1D4FBC4232D302
:1023A0000020BDE8F0876368A668073323F0070ABA
:1023B0006369D90705D506EB45163046FFF7BCFF24
:1023C00001E0002DF9D0636908FB05F95A0748BF01
:1023D00043F00203F361D4E903126368304605FB5E
:1023E0000A224944FFF7BAFF63699B0705D5E368F2
:1023F0004B445A7B42F010025A7301352368AB42BA
:10240000D1D81834CAE70025F8E700BF3CAC020079
:1024100054AC02002DE9F04105460C46EFF311865D
:10242000202383F31288BFF36F8F1EF0E3FE6368EF
:10243000324A03446360216B9368994237D1D4E9EF
:102440000A310B6059600023C4E90A3391680A7BA2
:1024500042F010020A73236305F1080704F128080B
:10246000414638461BF0C0F80121384665631BF031
:10247000AEF8804530D12A4652F8143F93421ED020
:10248000EBB10022283B1946206851F8287B87428F
:1024900006DC04D15F686068874200D000DC01324E
:1024A000A86981420AD09B6A43B1283BEBE701222D
:1024B000002104F1100027F01EF8CDE762B928468C
:1024C00027F0A9F970B90E48036813F0060F03D07E
:1024D00002210C4A1BF04EFE86F31188BFF36F8F6A
:1024E000BDE8F081226882736268026127F018F902
:1024F00031462846BDE8F04118F038BA3C74002057
:10250000B4060020ECC802002DE9F047058B044614
:102510002807904611D4022905F0070540F0CC8029
:1025200020461BF0D0FB78B10138218B042811D84C
:10253000DFE800F0C2106D85950001290CBF45F061
:10254000100545F02005258388F31188BFF36F8FB0
:10255000BDE8F08701F0070AAA4500F0A580002732
:10256000B9463E46A368002B00F0BC8041F008014C
:10257000218388F31188BFF36F8FA168002900F0D1
:10258000BA800D68002900F0B680334652462046D6
:10259000D1F80480C047002D76D02B6829461D460F
:1025A000F0E701F007035A1F012A1BD8002221F08F
:1025B0000701062B276889B2C4E9002209D13B46EE
:1025C00003E0628B013262831B68002BF9D141F07A
:1025D0000201204621831BF076FB00287AD041F0CF
:1025E000200176E0042B0AD121F0070189B22046B0
:1025F00021831BF068FB10B141F020012183218B66
:1026000001F0070AAA454FD00027B946AAE7236977
:1026100021F0070141F00601062DD3F80090218337
:102620002DD1B9F1000F3FD041F00801218388F38B
:102630001188BFF36F8F20463949C84729E021F040
:102640000701236941F0040189B2042DD3F80490F5
:102650002183E6D000274FF0040A3E4682E721F0AE
:102660000701236941F0050189B2052DD3F80890CF
:102670002183D6D000274FF0050A3E4672E7002797
:102680004FF0060A3E466DE72B4687E7B9F1000F8B
:10269000D1D1EFF31188202383F31288BFF36F8F1A
:1026A000238B23F008032383258BEA062ED525F000
:1026B0001003238305F007056669218B002EBFF602
:1026C00070AF00232768C4E9003321F0070141F00F
:1026D00001012183218B4FF0000901F0070AAA456F
:1026E0007FF440AF002F9CD041F00801218388F394
:1026F0001188BFF36F8F002FC8D03D68394633462D
:10270000524620461BF00BFB2F46F4E7AB067FF545
:102710001BAF25F02003238305F0070500E700BF6A
:102720004BDD01002DE9F047044607464FF0010953
:10273000DFF8508014B93846BDE8F08794FAA4F564
:10274000B5FA85F509FA05F32E0108EB05156FEAD0
:10275000030A24EA03042B7B002BEBD058F8063045
:102760001B694BB94644736804222846196807EA76
:102770000A0700F023FBDDE7284698470028D9D157
:10278000F0E700BFA8AD020030B5002289B00F49C4
:102790000F4827F0E5F8002200230024CDE90623A6
:1027A0000E230C4DCDE903344FF440722846CDE999
:1027B0000144094B0949009417F020FF08492846B5
:1027C00017F052FE204609B030BD00BFE5270000DB
:1027D000300D002058080020012B0000F07600206A
:1027E00024C90200014817F023BC00BFD407002011
:1027F0002DE9F04780461F480F461BF025FC064692
:10280000002830D000252846BDE8F087237B6BB137
:102810002368DB680BB12046984723681B69D3B94E
:10282000636804222046196800F0C8FA01361034A3
:102830004C45EBD3B8F1000FE5D0002DE2D028468F
:10284000FFF770FF0546002FF7D0002140F2391046
:1028500018F08CF9F1E7204698470028E0D00AFAF2
:1028600006F31D43E2E705464FF0010A024CDFF88C
:102870000C90DDE7885E0020A8AD0200B8AD020034
:1028800008B5034608462BB1044A136000F078FDF2
:10289000002008BD6FF01500FBE700BF38020020E4
:1028A00010B5044C237813B9034817F0C1FB01237A
:1028B000237010BD90750020D407002010B5044689
:1028C00009481BF0C1FB3CB1084BD3E8EF1F0139AD
:1028D000C3E8E21F002AF8D1054827F04DF8BDE80B
:1028E0001040044817F0A4BB805E0020845E0020E6
:1028F000300D0020D407002000200146034BD3E810
:10290000EF0FC3E8E21F002AF9D17047805E002074
:1029100070B5FFF7F1FF0546074C084EB44200D3EF
:1029200070BD63685B792BB123685B6813B129467E
:10293000204698471034F1E7A8AD0200B8AD020078
:1029400010B5044C044920461AF04EFC034B1C60A1
:1029500010BD00BF2C06002058B20200785E002097
:1029600008B50023074A08491370084A084813604D
:10297000084A1360FFF784FFFFF7E2FFBDE8084055
:1029800000F06CB99175002040420F00805E00207D
:1029900045E00100845E002001460022002301483A
:1029A0001AF043BC2C06002001481AF0D9BC00BF25
:1029B0002C060020024B014618681AF025BD00BF06
:1029C000785E002001481AF05ABD00BF2C06002096
:1029D0002DE9F041334B1878002860D0FFF7E4FF71
:1029E000044678B1304BD3E8EF1F0139C3E8E21F4A
:1029F000002AF8D12D4DDFF8B88045452DD320466B
:102A0000FFF7D8FF2B4B2C4C1B68002B19DD26F051
:102A1000A5FF4FF47A75A0FB050647F612220023A6
:102A200005FB0161FEF76AF9D4E90032C01A40F2F1
:102A3000E93361EB0201984271F1000101D3FFF724
:102A400067FFD4E9003213F57A7342F10002C4E95A
:102A50000032BDE8F041FFF7B5BF6B685B793BB171
:102A600021784B0706D52B68214628461B689847D6
:102A70001035C2E720462688C1F3C20700F0BEFA2F
:102A8000C6F382160246002EEDD00028EBDB0123B0
:102A90003946284600F0ACF9B042E9D3E3E7BDE897
:102AA000F08100BF90750020845E0020A8AD020078
:102AB000B8AD0200805E0020280D002070B50D4DDD
:102AC000297861B90120FFF793FE0B4C0B4EB442FD
:102AD00006D3FFF77DFF0028FBD101232B7070BDCB
:102AE00063685B791BB1236820469B689847103464
:102AF000EDE700BF91750020A8AD0200B8AD02005F
:102B000000212DE9F0470846FFF772FE044658B34E
:102B100040F21B684FF0000927F056FB1B4B1C4A84
:102B20001B58136033B11B4B1B68092B02DD1A487D
:102B300017F07EFA0025194FDFF85CA044B120465B
:102B4000FFF7F0FD044618B94FF0FF384FF0FF399A
:102B5000FFF73EFF064628B9B5B942464B465046F8
:102B600017F08CFA3546E9E74FF0FF384FF0FF39A0
:102B7000D2E72B689B691BB1002228461146984773
:102B80001035BD42F5D3E8E7054DFAE7080000002F
:102B90007C5E0020845E0020D4070020B8AD0200D7
:102BA000A8AD020013B518481BF04EFA174B1B785E
:102BB00073B1EFF31184202383F31288BFF36F8F77
:102BC000FFF706FF84F31188BFF36F8F02B010BDCB
:102BD0000F4B1B68002BF9D050B9002200230D4881
:102BE000CDE9002347F61222002318F08FFAEDE713
:102BF0000928EBD1074826F0BFFE074802B0BDE820
:102C0000104017F015BA00BF845E002091750020B7
:102C10007C5E0020300D0020D407002010B5064B4C
:102C200004461B6898472146A06004481AF079FBC7
:102C3000BDE81040FFF7B6BF380200202C06002088
:102C4000044A054B9B1AB1EBD30F34BF52F8310045
:102C500000207047B8AC0200A8AD020000210B486C
:102C60000B4B30B51B1A0B4CDB080430994200D1DA
:102C700030BD10F83120256802F0070225F0070565
:102C80002A4344F8042B0131F0E700BFB8AC02003E
:102C9000A8AD020070060020F8B5064600240A4FD1
:102CA0000A4DED1BED08AC4203D14FF0FF34204636
:102CB000F8BD57F8340020B13146FEF787F90028F7
:102CC000F5D00134EFE700BFB8AC0200A8AD0200B8
:102CD00000282DE9F047884615461F461DDA4FF0BB
:102CE000000A5446DFF89090244EA6EB09063609F8
:102CF000B24509F1100902D12046BDE8F08759F824
:102D00000C0C3B462A4641460079FFF7E1FF84421E
:102D100038BF04460AF1010AEAE7194B194AD21AE8
:102D2000B5EBD20F26D203EBC5031C79BC4228BFFA
:102D30003C460722144EC0B200EB400056F8253046
:102D4000824023EA020304F0070282401343002179
:102D5000032223FA02F000F00700814202F103028D
:102D600038BF01461E2AF4D123F007030B4346F86F
:102D70002530C1E70024DCE7A8AD0200B8AD0200B1
:102D8000B8AC0200A8AD020070060020F8B50646F7
:102D90000F460024074D084BED1AED08AC4200D356
:102DA000F8BD002122B23B46304601341BF068F9E1
:102DB000A4B2F3E7A8AD0200B8AC020038B50D46E6
:102DC00011460A4B4268C31A1B11044601331371A2
:102DD00043689971FFF7DAFF012263681D60636839
:102DE0005A71BDE83840FFF75BBD00BFA8AD0200D7
:102DF00070B14168097973B1002A17DBCBB20C4975
:102E000003EB430351F82200D84000F0070070475D
:102E10004FF0FF31EFE707490748401AB2EBD00FF8
:102E20003ABF01EBC2010879184670470420704789
:102E300070060020B8AC0200A8AD02002DE9F04FEA
:102E40008FB0C1F34A2804AF0D469146B8607B604D
:102E50000C0DB8F1000F67D000264FF0040B4FF0B7
:102E60000A0A07F11403C7F80C80C7E907667E62F7
:102E70000193CDF808B0CDF800A007F11C0332464D
:102E80004846F968FEF7F2FFB0F5006F034620D31D
:102E90002A48036813F0060F17D06C468AB0D9F899
:102EA000041004AB264D1A46C3E9055140F2FF71E8
:102EB000D9614FF400711984224B42F8103F4FF44E
:102EC00012513346FFF7BAFFA5462C37BD46BDE881
:102ED000F08FC0F30A0804F11700184420F007002F
:102EE00080083B60FFF758FD68F35325044690B116
:102EF0003B6800F11001C7E9083607F11403F961D6
:102F0000CDE900A3CDF808B048460F4AF96807F1AB
:102F10001C03FEF7ABFF68F353252A4620467B6867
:102F2000B9681BF0D7F8D0E704F1170020F00700CC
:102F30008008FFF731FD0446EDE700BF9C06002046
:102F400039C9020004000001A9E001002DE9F04F99
:102F500087B00446DDE9105ADDE9127993469846B8
:102F60000391DFB13B46524610210020CDF800907E
:102F7000CDF81490FEF7A8FDB0F5006F06460ED30D
:102F80001C48036813F0060F30D040F2FF73022193
:102F9000194A07B0BDE8F04F1BF0F5B83E4605F101
:102FA0001700304420F007008008FFF7F5FC04F01C
:102FB00007040BF0070BE40044EA8B1444EA4624B0
:102FC00044EA0554054640B13FB13B4652463146BE
:102FD000CDF800901030FEF777FD43462246284694
:102FE000039907B0BDE8F04F1BF074B807B0BDE817
:102FF000F08F00BF9C06002078C90200406820B115
:10300000034BC01A40F38F0070474FF0FF307047FA
:10301000700600200EB403B503AB53F8042B014631
:103020000448019303F022FC02B05DF804EB03B006
:10303000704700BFE9E10100CA0605D48B064CBF0A
:1030400002490349FFF7E6BF704700BF4FCD0200BA
:10305000B0C902002DE9F04F89B09B46149B9DF842
:103060004CA00693159B04460593169B0D4690466F
:10307000179E0493BAF1000F00F09D8006F4807350
:1030800007931AF0FBFF06F00209024600283ED023
:1030900020469149FFF7BEFF0746B9F1000F08D05F
:1030A00016F0440F35D12A4620468C49FFF7B2FF6F
:1030B000074406F0010353B1894B204653F82A20F8
:1030C000884B8949002A08BF1A46FFF7A3FF06F478
:1030D0008073002B49D006F00803002B63D1B8F1B0
:1030E000000F66D0424620468049FFF793FF054611
:1030F000069B3D44002B6DD1049B002B73D1F3073D
:1031000000F1E48031462046FFF796FFD8E00746FD
:10311000C3E7774B18680028CAD0764B4FF47A790A
:103120001B684FF46161B5FBF3F5B5FBF0F300FBF1
:10313000135509FB05F5B3FBF1F2B5FBF0FE4FF0BB
:103140003C0C01FB123100FB1E55B1FBFCF309FBEB
:1031500005F5B5FBF0F50CFB131120460091CDE908
:1031600001E56549FFF756FFA2E706F00803EBB15A
:10317000624B204653F82A206149FFF74BFF054672
:10318000B8F1000F05D0424620465849FFF742FFEC
:103190000544BBF1000FABD05A4620465949FFF712
:1031A00039FF0544A4E74FF0000BE1E706F00805FE
:1031B000E6E745469CE7BBF1010F069B06D1002BD5
:1031C00064D1049B002B7BD000250CE0002BF8D0B1
:1031D0004D485CE04D48069B22464D4919F0A3FE40
:1031E000049B002B68D0DFF82C81DFF82C91049F22
:1031F0003146102F204628BF10274FF0000BFFF755
:103200001BFF5D4545DC059B494620461A78FFF7C4
:1032100001FF4FF0010B1BF0070F03D14146204681
:10322000FFF7F8FE5F453BD9059B4946204613F85A
:103230000B20FFF7EFFE0BF1010BBBF1100FEAD1F2
:103240004FF0000B20463549FFF7E4FE5A46059B38
:1032500020469A5CA2F120015F2928BF2E22304926
:10326000FFF7D8FE0BF1010BBBF1100F1DD01BF0C7
:10327000070F03D141462046FFF7CCFE5F455A4673
:10328000E5D841462046FFF7C5FEEBE71F48554607
:10329000A1E741462046FFF7BDFE0BF1010BB0E769
:1032A00020462049FFF7B6FEC5E7059B3B44059342
:1032B000049BDB1B04939AD1BAF1000F7FF41FAF7C
:1032C000204609B0BDE8F04F1AF081BF2046054AFC
:1032D0000549FFF79FFE15E7B8C90200BCC9020007
:1032E0006CB20200B3C90200B7CE0200E1C902000D
:1032F000905E00208C5E0020C5C9020080B20200F2
:10330000E5C90200EBC9020017E20100E9E1010092
:103310006D680000F8C90200F0C90200FAC9020095
:1033200019D50200F6C9020042F20F7373B58B4241
:1033300028BF0B4605680446052168460D4A17F06C
:10334000FFFF0646636828460B225B680A491AF0AD
:1033500030FF63683246694628465B681AF029FFE9
:1033600063681B2228465B6804491AF022FF02B0FA
:1033700070BD00BF2AE5020018CA0200FCC90200A5
:1033800000210123064A904206D8064A01B90123CA
:103390001360054B18607047012140085B00F2E79D
:1033A00040420F008C5E0020905E0020014B0360C5
:1033B0000020704794B2020003289ABF024B53F8D2
:1033C00020000248704700BF94B2020050CD0200B6
:1033D00070B544690D469CB31E4A2379565CB342CE
:1033E00031D01D4A525C9A4230D1A36898470028D8
:1033F00010DA022D0CD0032D0BD110F1860F07D05F
:10340000D4E8EF3F43F00203C4E8E23F002AF6E7C6
:10341000267170BD022D267101D00020F9E7D4E895
:10342000EF3F23F00403C4E8E23F002AF7D1D4E8D9
:10343000EF3F23F00203C4E8E23F002AEDD0F6E7B5
:103440006FF05700E5E76FF07700E2E76FF0850077
:10345000DFE700BF60CA02005CCA02002DE9F84342
:103460008846052105461AF076FF17461E46044693
:1034700030B3DFF8909099F8001021B326F0EFF800
:103480004FF0FF33421E43F1000305F118001AF01C
:1034900068FF041E33DB4146EB68B3B91A48036882
:1034A00013F0060F03D00221184A1AF063FE6FF0E2
:1034B000770499F800301BB105F118001AF053FF9A
:1034C0002046BDE8F8830C46E6E7013BEB60002BA5
:1034D000EFD141B102233A462B7105F1400033464A
:1034E00016F078FFE5E7AB6868699847041EABBF44
:1034F0000123EB682B710133B8BFEB60D9E76FF0A4
:103500000F04DDE7E7760020B806002064CA020059
:103510002DE9F3474569064625B90024204602B047
:10352000BDE8F087052128461AF015FF0028F4D0E1
:10353000082170691AF00FFF074660B3EFF3118797
:10354000202383F31288BFF36F8F7569EA682B68B5
:10355000E2B95A070AD401213046AB689847041EE5
:103560000EDA87F31188BFF36F8FD7E728694369B5
:103570001B681B070CD5FFF7CBFF041EEBDAF0E747
:1035800000232B71EB680133EB60EAE70024F9E7D5
:103590006FF00A04E5E73D4E347854B126F05FF849
:1035A000421E67F1000305F118001AF0DAFE041E4E
:1035B00069DB26F054F810B12B79022B0ED02F695D
:1035C000F7B13846FFF7A4FF044648B90121284661
:1035D0001AF0C1FE60B138461AF0C7FE6FF00A0457
:1035E0003378002B9AD005F118001AF0BCFE95E74D
:1035F000D5E8EF3F43F00403C5E8E23F002AF7D1E6
:10360000EB680133EB602B79022B08D105F1400008
:1036100026F012F810F0010001D12871E0E73378AC
:1036200043B14FF0FF384FF0FF3905F130072B79E8
:10363000022B10D0EB68012BD2D8AB68012168694E
:103640009847041EABBF0023EB682B7103F1FF33D7
:10365000B8BFEB60C4E70321384605F1180A26F02D
:1036600057FB50461AF07FFE002203213846CDE971
:10367000008926F051FB4FF0FF324FF0FF335046E8
:103680001AF06FFED3E76FF00A0447E7E7760020F1
:10369000F8B545690646002D5DD0052128461AF08B
:1036A0005AFE00285AD130461AF001FE044600287E
:1036B00056D1082170691AF04EFEE0B17569EFF33A
:1036C0001187202383F31288BFF36F8F297931B9D3
:1036D0003046AB689847041E07DB01232B712B682B
:1036E00043F020032B600023EB6087F31188BFF3C6
:1036F0006F8F2046F8BD1C4F3B783BB14FF0FF3237
:103700004FF0FF3305F118001AF02BFE6B692BB94F
:1037100016496E6105F1400025F082FF2979C1B993
:10372000AB6868699847041E0BDB01232B710023EB
:10373000EB60D5E8EF3F43F02003C5E8E23F002A05
:10374000F7D13B78002BD4D005F118001AF00BFE0E
:10375000CFE70024EBE76FF08504CAE70024C8E751
:103760006FF00F04C5E700BFE7760020C5E3010056
:1037700010B504461DF03EFD0349024620461BF0ED
:1037800051F8002010BD00BF8ECA0200134600226F
:1037900073B5044601920A21586801AA01F03CFC65
:1037A000019D95B920EAE07447F61226294640F2B9
:1037B000E7304FF47A720023C4FB0601FDF79EFA4E
:1037C00017F0D4F9284602B070BD2A4620460249B7
:1037D0001BF044F8019DF5E7BACA020008B5034A98
:1037E00003491BF01FF8002008BD00BFAACB020050
:1037F000B1CB02002DE9F3411746002304460A210C
:10380000B86801AA019301F007FC019DC6B24DB151
:103810002A46204613491BF021F8019D284602B094
:10382000BDE8F081042E09D9324620460E491BF02E
:1038300015F820461BF04EF80125EFE77868FFF7F2
:103840002BFAB0F1000804DA20467A6807491BF029
:1038500005F80021334608460FFA88F21AF010FCEA
:10386000DCE700BFDCCB020003CC02001ACC020074
:1038700010B5044606F0FAFC0749024620461AF045
:10388000D1FF204605491AF0CDFF2146044817F024
:103890004DFA002010BD00BF72CC020091CC020096
:1038A000A538000070B58EB004460D46D0F8B4605F
:1038B00025F0DBFE034626F087FC214A21491058FB
:1038C000214A002B18BF1A460092204A2346844200
:1038D00018BF0A4628461E491AF0A4FFD4E90C2353
:1038E000CDE90023284694F90E30227B19491AF0BD
:1038F00099FF06A92022204616F0C6FDE36F024676
:10390000154928461AF08EFF204605A925F0BDFE70
:10391000024628B1284611491AF084FF0EB070BD46
:103920006422059B2846F11A4A43B2FBF6F2009145
:10393000CDE901620A4932461AF074FFEEE700BF92
:1039400008000000F8C902009BCC02000DE0020054
:103950009ECC0200AACC0200D6CC0200EDCC020024
:103960001ACD0200F0B50025044691B0294608AFF3
:103970001C2209A826F002FA134E1A2220213846EA
:1039800026F0FCF92146114817F0D0F907AA4FF4A8
:103990000061304625F06DFE6423079A2046C2F58B
:1039A00000614B43DB0A05934FF400630097CDE9B8
:1039B0000313CDE9013206492B4632461AF032FF95
:1039C000284611B0F0BD00BFF0910020D5390000AD
:1039D0006BCD020070B504460D46D0F8B46088B0D7
:1039E00007A925F052FE024628B128460E491AF0D2
:1039F00019FF08B070BD204625F037FE6422079BF2
:103A00000096F11A4A43B2FBF6F2CDE90131074BB9
:103A1000CDE90362002818BF034622462846044920
:103A20001AF000FFE5E700BFEDCC02009BCC0200DE
:103A3000B4CD020073B506461446506815F060FF19
:103A4000054640B93046626817491AF007FF6FF023
:103A5000120002B070BD1AF017FD38B93046626826
:103A600012491AF0FBFE6FF08500F2E728460DF1CF
:103A700007011AF013FC9DF8073053B930460821AE
:103A800063680B4A1AF0B3FE28461AF06EFC002059
:103A9000DFE7304608216368064A1AF0A8FE284688
:103AA000FFF736FDF3E700BF18CE02002DCE02006F
:103AB00061CE02007CCE02002DE9F0478AB00546B7
:103AC00004A815F011FF1823049F082103FB0077B9
:103AD000264A28461AF08BFEDFF89480049CDFF813
:103AE0009490DFF894A0BC4203D300200AB0BDE854
:103AF000F08723680BB11A783AB91421234642465D
:103B00000DEB010017F01CFC05AB4A4608212846C6
:103B10001AF06DFE204625F058FCE8B1002320463F
:103B20000DF10F018DF80F301AF0B8FB90B99DF828
:103B30000F00FFF741FC064620461AF0AEFC0028B5
:103B40000CDB00903346082128460C4A1AF04FFE41
:103B50001834C8E70A4EEFE75646EDE7334608212A
:103B60002846084A1AF043FEF2E700BFA6CE02003C
:103B7000B0CE0200B5CE02009DCE0200BACE020049
:103B800097CE020082E802002DE9F04114468846F3
:103B9000074610220021606817F074FCB8F1020F8C
:103BA000064607D8202308213846244A1AF01FFE6B
:103BB000336816E00A220021A06817F063FCC5B242
:103BC0002B46082138461D4A1AF011FEB8F1030FA2
:103BD0001AD1102D0CD0202DEAD0082D0BD133781E
:103BE000DBB208213846164A1AF001FE002009E02F
:103BF00033889BB2F5E738460821124A1AF0F7FDE0
:103C00006FF01500BDE8F08110220021E06817F088
:103C100039FC0821034604460B4A38461AF0E7FDF2
:103C2000102D06D0202D07D0082DE4D1E4B2347039
:103C3000DCE7A4B23480D9E73460D7E71ECF0200B6
:103C400049CF020033CF02005ACF02002DE9F04FD6
:103C500091464FF0FF350122584B85B00746884604
:103C60001A60202602F030FE2C46DFF854A14946A7
:103C70005246404602F04CFE411C06D16A1C50D10F
:103C8000504938461AF0EAFD1CE073281FD0772807
:103C900032D0612816D1DFF830B110220021DBF8D4
:103CA000000017F0EFFB05460028E0D126F08CFA63
:103CB000464B1B58162BDAD1DBF800204449384616
:103CC0001AF0CCFD6FF0150005B0BDE8F08F0022B2
:103CD000DFF8F4B01146DBF8000017F0D3FB044620
:103CE0000028C4D126F070FA384B1B58162BBED1D1
:103CF000DBF800203749E2E70022DFF8CCB01146BC
:103D0000DBF8000017F0BEFB06460028AFD126F016
:103D10005BFA2E4B1B58162BA9D1DBF800202E493D
:103D2000CDE7631C01D12D49ABE75FFA86F8C6F3F6
:103D3000C406002C3FD06B4629461A46A6EB050C5C
:103D40000CE0B8F1100F1DD0B8F1200F20D0B8F161
:103D5000080F2AD10878187031443344A64203D89A
:103D60000CEB01001028ECD9102CA14628BF4FF015
:103D7000100929464B46384601F026F81035A4EBC9
:103D80000904D6E7088880B21870000A5870E3E783
:103D900008684FEA102E187083F801E04FEA104EC1
:103DA000000E83F802E0D870D6E7082138460C4AA6
:103DB0001AF01DFD86E7204686E700BFA40200201A
:103DC000A8CF0200AFCF02006C6200200C00000000
:103DD0006ECF020081CF020094CF0200CCCF020050
:103DE00033CF020070B50F4E04460D46337871B1E3
:103DF00023B10D49BDE870401AF030BD0123337086
:103E000020460A491AF00EFD0123337004E083F0C6
:103E100001033370002BF3D129462046BDE87040E2
:103E20001AF075BD92750020E6CF020021D0020085
:103E300070B504463B480378182B02D10B78112B40
:103E400031D00B46013A8D18AB4225D18B5C0A78F4
:103E50000370A2F13003092B334C04D922F0200364
:103E6000413B052B04D823683049CA5401332360F1
:103E70002368022B33D1102200212C4817F002FBBB
:103E80002B4A136803F8010B13602A4A13680133A5
:103E900013600023236022E013F8016B182ED3D1A6
:103EA0001E78112ED0D1234D20462A6822491AF0BF
:103EB000B9FC20460021FFF795FF204B187870B918
:103EC0001F4A2B681168042B0ADC08B111602B60B3
:103ED00013F003010BD1126813681BBA136070BD95
:103EE0000868043B00BA41F8040B0120EBE75B4291
:103EF00003F0030358BF5942022904D11268138802
:103F00005BBA9BB2EAE70329E9D1106802681104A1
:103F1000C2F3074301F47F010B4302F47F421343D2
:103F20000360DCE793750020945E00209575002007
:103F3000A05E0020985E00204BD002009475002007
:103F40009C5E00202DE9F84F0023064615460C46DE
:103F50002949DFF8A8800B602949DFF8A890DFF82D
:103F6000A8B088F800300B60012C2F4655F804AF3C
:103F70001ED902224946504625F029FF80B99AF8F9
:103F80000220003A18BF01229244504602221F49E3
:103F900025F01DFF30B9012388F80030013CE3E72C
:103FA0000022F1E749465046FDF710F8A8B904375A
:103FB00000227868114617F0EFF90022144B1146E1
:103FC0001860786817F0E8F9124B1349186030460A
:103FD000FFF708FF0020BDE8F88F9AF800202D2A8F
:103FE000E6D19AF80120002AE2D0524659463046DE
:103FF0001AF018FCD2E700BF945E002094750020F0
:10400000985E002065D002006BD0020068D00200EC
:10401000A05E00209C5E0020313E000007B50A48EB
:1040200025F0D3F960B10423084A009312680123F4
:104030000549074800F02EFF002003B05DF804FB9F
:104040006FF01200F9E700BF04A3020060B30200A2
:10405000BCAD020010B54468A3604023C4E900125F
:1040600042680821D36402F1580313630023C2E9B4
:104070000E33C2E91133C2E90633C2E90933D16212
:10408000146802F1500153631364116153611362A8
:10409000C2F8D030A36823B11B6C13B12046044989
:1040A0009847A3681B6A0BB120469847002010BDB3
:1040B000B54000002DE9F74304460D468368DB6BED
:1040C00003B19847A368DB6A0BBB4FF0000905F109
:1040D00030084046EA6C01A919F0FFFE07460028A7
:1040E00036D0A36801991B693BB302462046984726
:1040F000064628B33146404619F00CFFB7424FF050
:104100000109E6D00020D5E90131984703E02046B7
:1041100098470028D9D1A368DB6963BB05F1100774
:104120003846EA6A01A919F029FF064650BB204625
:104130001AF0EEF9C5F8D0602FE06FF05706D9E716
:104140000146404619F0E6FEB9F1000FE3D0D9E789
:104150001648036813F0060F03D00221144A1AF020
:1041600009F8A3681B69002BEED0012220460DF14F
:1041700003019847E8E7204698470028CED103B0CE
:10418000BDE8F083A3680199DB685BB10246204675
:1041900098470146384619F00DFFD5E90131012055
:1041A0009847ECE76FF05701F4E700BFCC0600201A
:1041B000D2D1020010B504468168183101F098F997
:1041C000A1682046BDE81040014A183101F036B917
:1041D00014D2020038B583680446D3F87832DB077E
:1041E0001DD4C0691BF0E5F8606803685B689847F8
:1041F000054620B9E0681BF089FAA3681D75A3681D
:104200005B6C13B1294620469847002225F0DCFF5D
:10421000A368C3F82023034B185801F0ADFF6FF0DB
:104220000F05ECE70800000001491AF003BA00BFCF
:104230004FCD0200F7B5044680680D46D0F87832BD
:104240005A0705D500211AF01DFAE0681BF030FA74
:10425000E368DB6873B9002D3BD0A66806F156070A
:1042600038461AF0F4F9002835D0394606F5AB7017
:10427000FCF7B6FEA2682946E0680DF10603563247
:104280001BF019FA58B9A06800F5AB715630FCF76D
:10429000A7FEA06856301AF0DAF9ADF806002046FD
:1042A0001AF064FEA368D3F874329B0603D50B4959
:1042B00060691AF0BFF9204600F04EFFA268BDF811
:1042C00006302046A2F85230A268A2F850301AF008
:1042D000B2FD03B0F0BD86F85601CBE758AF02003F
:1042E0002DE9F04FA7B004465422002111A825F073
:1042F00045FD0023CDE90533A368204656330293DC
:104300001AF03BFE20461AF07FFD10B96069FFF7F6
:104310008BFF00264FF0FF37B246B3463546B14615
:10432000A06814220021183025F028FD20461AF03C
:104330000EFDA168E068B1F8502056311BF0F2F98B
:1043400020461BF071FA0DF144080396DDE90532B1
:10435000012A6DD0132B6ED85FBBBBF1000F0AD0C2
:1043600020461BF082FA1423A26811A956320DEBE5
:1043700003001AF06CFBB9F1000F0CD099F8113062
:10438000FE2B08D1059B26AA02EB830252F8542C7F
:104390000AB101330593A068059D436A002B40F0E4
:1043A000B680CEB1C3699E422DD00D9600F118059E
:1043B00024E002234146029A06A81AF048FBD8F8E6
:1043C000042006990346029231B101290AD148B16D
:1043D0006D4A20461AF07FFE6FF00705284627B089
:1043E000BDE8F08F059B002B34D0D8F8000001F019
:1043F0009FF898B166B1A5680D9618350CAE0FCE32
:104400000FC533682B602046FFF7D4FE0125E5E792
:104410005E4A012120461AF05EFEDDE7059BCBB126
:1044200029462046D8F8002001F024FA022809D1B4
:10443000059B132B91D9069B022B8ED10121544B46
:10444000544AC6E7032805D0059B4FF0010B013302
:1044500005937BE7039B33B94846D8F8001007AAB9
:104460001AF0ECFB054608F10408013F9DB3EB6828
:10447000BBF1000F08D0F3B120461AF07EFD2046B4
:104480001AF0D9FC444AC4E7ABB1AE46A368DDF8E4
:1044900014A003F1180CBEE80F00ACE80F00DEF822
:1044A0000030CCF80030AB682BB96B7CFE2B04BF1E
:1044B0002F7C07F1FF37D5F804C0BCF1000F08D0FE
:1044C000AE460CAEBEE80F000FC6DEF8003033601B
:1044D0006646A94603E0059B53B101230393069B5F
:1044E00017B9022B7FF432AF059B013305932DE7FB
:1044F000A368DB6A13B1DB68002BEED1274B0121E7
:1045000000932046119B264A1AF0E5FDE5E790F856
:104510002830A5EB0A05BBB14FF6FF7290F82910C1
:10452000FF2918BF0A469D4202D313449D420BD96E
:104530008369012120461B4A1AF0CDFD2046FFF772
:1045400039FE6FF0150549E701211AF090F8A068CF
:1045500000F543701AF0AFF8A36811AA294602EBE0
:104560008A0220465B6A98470546A0684FF0FF32F2
:104570004FF0FF3300F543701AF044F80021A068B3
:104580001AF075F82AE700BF22D2020036D20200E4
:1045900097D2020035CC020054D2020083D202002E
:1045A000A1D50200BBD20200022210B583680446E6
:1045B0001A7583689B6CBBB91AF003F88368D3F84B
:1045C0007832DB040BD50321084B094A1AF083FD2E
:1045D000A0686FF4805100F51E701AF008F82046AC
:1045E000BDE8104000F00CBF10BD00BFD6D20200E5
:1045F000B7CE02002DE9F04F044680680121B1B02A
:1046000000F51E7019F0E8FFA3681B7D022B20D176
:1046100000230993A36860689E6C03681D6909AB59
:104620000EB310221BA9A847099B93B10121A068D2
:104630001AF01DF82046099A1BA9B0470021A0686E
:104640001AF015F8A3689B6C002BE3D12046FFF706
:10465000ABFF6FF00101A06800F51E7031B0BDE83E
:10466000F04F19F0C4BF01220DF12301A847099BA7
:10467000002BEED09DF923209DF82310002AA3687B
:10468000C8DB5A7D032A00F29782DFE812F00400AB
:1046900084029B0295020D297CD00A2958D0B3F8D8
:1046A000782209296FF3CA02A3F87822A06800F0E3
:1046B00086803DD80029ADD0082900F0FB81034653
:1046C000D3F874229207A5D501391629A2D801A2E0
:1046D00052F821F0654C0000EF4A0000F74A000054
:1046E000E74A0000594C0000154B00001546000039
:1046F0001546000015460000154600001D4B000041
:10470000254B0000154600004F4B000015460000E9
:10471000594B0000154600001546000015460000E4
:10472000154600005D4B000015460000874B000059
:104730001B2941D07F2900F0C981A1F120025E2A06
:104740000346BDD8012119F09DFF9DF82310B9E063
:10475000D3F87822C2F3C7022AB1D3F87822C2F381
:10476000C7020A2AACD1B3F8782261F3CA02A3F8CF
:104770007822A568B5F85010C1B9284619F082FF13
:10478000E0681AF095FF6069FFF74EFD2046FFF7DD
:104790000BFF3FE7D3F87822C2F3C702002AE2D02A
:1047A000D3F87822C2F3C7020D2ADBE72046FFF7D1
:1047B00097FDC5F82403E9E7012343752AE7D0F8FC
:1047C00074329B077FF526AF012119F05BFFA068CB
:1047D000B0F85030FF2B3FF41DAF0025B0F8522049
:1047E00000F1560100F5AB7025F0A1FAA3681BA9F2
:1047F000B3F852200BA8134483F85651A26814232F
:1048000002F5AB721AF023F90B9914293FF602AFA7
:1048100030AB03EB810343F8545CA368B3F8522038
:10482000002A53D0134493F85530202B02D0093B73
:10483000042B4BD800294CD100250A950A9B30AA9D
:1048400002EB830353F854AC0026504619F0FFFEE8
:10485000B3468146B04637463946284616AA00F088
:10486000A1FB0346002840D1012EA76865D10A9B11
:1048700030AA02EB830353F8540C19F0E8FE4146CA
:10488000064607F11802284600F08CFB056828460A
:1048900019F0DDFE864205D0821B92B22046A9198E
:1048A0001AF060FCA068B0F85230034493F8563018
:1048B000202B31D0093B042B2ED9D0F87432DF07DE
:1048C0002FD42021204600F063FDA3E60129B3D9AF
:1048D000013900200CAB009301900AAB1BAA1AF01F
:1048E000D8F905460028A9D194E61B684A465146E6
:1048F0001846039325F06BFA60B9039B1846FCF742
:1049000077FB584538BF5846002E08BFB8461FFAF7
:1049100080FB013601379FE7012120461AF0BFFADC
:1049200078E6002119F0B8FE2021204600F030FD85
:104930000121A06819F0B0FE6CE604907FF66AAE23
:104940000A9A30AB03EB820252F8543CC146184637
:10495000039319F07CFE049B0590A7F84030049661
:10496000A26849462846183200F01CFB039BD0F889
:1049700000A009F101094BB1BAF1000F06D01946A8
:104980005046059A25F023FA0028E9D1A168BAF12A
:10499000000F4DD1A1F840A0049B013B0493DFD14F
:1049A0006069FFF741FC204600F02AFD0A9B30AA0F
:1049B00002EB830353F8540C19F049FE414611AA47
:1049C0008146284600F0EEFA0746A0683968FF22C3
:1049D00000F5AB7025F00DFA3B684FF6FF7708F154
:1049E000010AB84603935146284616AA0AF1010B5C
:1049F00000F0D8FA002851D00022A168036801F223
:104A0000551111F801EF985C704503D110B10132D6
:104A10004245F6D1B9F1000F01D04A4506DBBA4252
:104A2000A8BF3A46013E012E97B237D0DA46DAE700
:104A30009848069119F00BFE069900EB0B074A8F78
:104A4000BFB2121A92FBF7F2504692B20791069249
:104A500019F0FDFD07993F1AB1F84000069A00F1E0
:104A6000010CA1F840C0B0FBF2F102FB110080B2D2
:104A7000BFB260B906212046864B874ACDF800A018
:104A80001AF029FB3946204600F050FB84E75346D4
:104A900006212046814A1AF01EFBF3E7002F3FF45F
:104AA000B9AD0399A7EB0902204692B249441AF026
:104AB00059FBAFE5D0F874329E077FF5ABAD01210D
:104AC00019F0E0FD20461AF06EFBA3E5D0F8743231
:104AD0009D077FF59FAD012119F0D4FDA368D3F8A0
:104AE00074321907EED420461AF03EFB92E52046B8
:104AF0001AF04CFA8EE520461AF03FFA20461AF0DA
:104B000083F910B96069FFF78FFB0121A06819F0E4
:104B1000B9FD3BE620461AF042FA7BE520461AF042
:104B200049FA77E5D3F874329B0603D55C4960698E
:104B300019F080FDA368D3F874329F0603D5594954
:104B4000606919F077FD204600F05AFC62E500210B
:104B50002046FFF76FFB5DE50121F9E720461AF0DB
:104B600005FA204619F02DFD0121A06819F08AFDF3
:104B7000A368D3F874329E067FF54CAD4A4960694C
:104B800019F058FD46E5204600F060FB0121A068C1
:104B900019F078FD3EE55B2902D102225A7539E50C
:104BA000D3F874329D0706D5622907D14FF0FF3143
:104BB00020461AF09DF9A3680022EFE76629FAD192
:104BC0000121F5E700225A75A268D2F874329807DD
:104BD0007FF520ADA1F131031B2B3FF61BAD01A1E9
:104BE00051F823F0614C00006D4C0000814C000036
:104BF000554C000015460000154600001546000003
:104C00001546000015460000154600001546000038
:104C10001546000015460000154600001546000028
:104C200015460000594B00004F4B0000154B00008B
:104C3000EF4A000015460000594C000015460000E0
:104C4000654C0000154600001546000015460000A2
:104C5000714C00000323537520461AF08EF9D9E4F5
:104C60000323537520461AF081F9D3E403235375C7
:104C7000A068D0F8741201F0010181F0010159E639
:104C800003235375A368D3F874329B077FF5C2AC36
:104C900029E700BFF7C902001AD30200B7CE02000D
:104CA0005DAF020062AF020058AF02002DE9F04193
:104CB00004468068154600F51E70002937D04FF471
:104CC000804119F089FCA3680021DD6460680368F5
:104CD0009B68984700284BD1204619F013FD002807
:104CE00046D1244E244FDFF89480A06800F52F7041
:104CF0004FF0FF324FF0FF33032116F041FA054623
:104D0000A0684FF0FF324FF0FF3300F543709DB1C4
:104D100019F078FC20462B460121194A1AF0DBF9DC
:104D2000A068BDE8F04100F5437019F0C4BC6FF411
:104D3000804119F05CFCC6E719F064FC32460221A0
:104D4000204619F061FC3A462946204619F05CFCE1
:104D500020464246012119F057FC606803685B69F0
:104D600003B19847A06800F5437019F0A4FCBCE7B4
:104D7000BDE8F081D5410000F5450000BBE601002B
:104D800020D3020010B504460A4919F04BFD204615
:104D9000094919F047FD2046084919F043FD20460E
:104DA000074919F03FFD20460021064A00F046FB66
:104DB000002010BD37D3020075D30200D4D3020007
:104DC00028D40200C2D40200F8B51E4617460A468F
:104DD0002949044619F026FD3EB320463A78274972
:104DE00019F020FD01256A0703D12046244919F056
:104DF00019FDAE421ED920467A5D204919F012FDF8
:104E00000135102DEFD120461E4919F00BFDB6B922
:104E100020461B4919F006FD0125AE422B4610D84D
:104E20002046174919F0FEFC15E02046164919F0F6
:104E3000F9FC01252046144919F0F4FCE0E70025AF
:104E40002B46FA5C2046A2F120035F2B28BF2E22BE
:104E50000E4919F0E7FC0135102D06D06B07DCD1A7
:104E60002046074919F0DEFCD7E72046BDE8F840A8
:104E7000074919F0D7BC00BFD8D40200F0C902001E
:104E8000F8C90200FAC90200F6C9020019D50200E9
:104E9000DFD402002DE9F043044680688846D0F84C
:104EA000201315461F4689B0002960D14FF44A727D
:104EB00024F064FFE0681AF09DFCA06800F54370E0
:104EC00024F012FB4FF42F794FF41F76A068304482
:104ED00024F0B4FEA0680022831901214844103652
:104EE00024F083FEB6F52F7F09F11409EED10026D8
:104EF000A36902211E60A06866F3820500F51E709A
:104F000019F06AFB5022A36820465A871822A3682A
:104F10001A87216819F0B0FCA3684146C3F874529F
:104F20006068144A03681D682346A8470546D0B93F
:104F30000122A3681A75D4E90A0100220023CDE9F1
:104F400006230E230393109B4FF40062CDE90173F7
:104F50000495094B009415F051FBA368C3F8200396
:104F6000616A15F081FA284609B0BDE8F0836FF058
:104F70007705F8E75BE60100AD4C000010B504468C
:104F800013460A460146064801F070FC23691B7966
:104F900023B12046BDE8104019F0BFBC10BD00BFD2
:104FA00033E9010038B50B46154648B91449154A8E
:104FB000521AB3EB920F05D251F82350284638BD50
:104FC00084680CB90025F9E70F4A94420AD30F4AC6
:104FD000944207D218462946226890472B68002B36
:104FE000ECD1EFE70A4A944202D30A4A944205D32D
:104FF000246814225343E518E358F0E70133F8E737
:10500000ECAD020020AE0200FCAE020028AF0200B0
:1050100020AE0200FCAE02000023F7B5164602786F
:1050200004462D2A019305D16FF01503002033604B
:1050300003B0F0BD25F0C8F805460B4F0A46C35132
:1050400001A9204616F01EFAEB59222B02D16FF06F
:105050002103EBE7002BE7D1019BA342E4D01B78AF
:10506000002BE5D0E0E700BF0C00000070B50D4656
:10507000144904461646FBF7A9FF08B32046124917
:10508000FBF7A4FFE0B120461049FBF79FFFB8B142
:1050900020460F49FBF79AFF88B120460D49FBF7E0
:1050A00095FF60B120460C49FBF790FF38B13246BE
:1050B00029462046FFF7B0FF003818BF012070BD19
:1050C0000120FCE7C9CB0200FBD4020002D502009C
:1050D0004ECA020007D502000FD502008368D3F83C
:1050E00074329B0603D50249406919F06EBE7047C1
:1050F00068AF0200014919F068BE00BF4FCD020041
:105100000A1E0DDC0ED042238168D1F87412890684
:1051100008D5002A04494069B8BF524219F055BE6B
:105120004123F1E7704700BF15D502000A1E0DDCD0
:105130000ED044238168D1F87412890608D5002A5C
:1051400004494069B8BF524219F03FBE4323F1E71A
:10515000704700BF15D502002DE9F0478568044669
:1051600005F15600FBF744FF0023984695F83C7084
:10517000DFF8549086B2A268558FED1BB54209DB6B
:10518000002E1FDD5633606910491A44BDE8F04710
:1051900019F01BBE1D442A4492F856A082F856808E
:1051A000A26856331A444946606919F00EFEA36896
:1051B0002B4483F856A0A3685B8FDB1BF61A0027ED
:1051C0002B46D8E7BDE8F08735CC0200B7CE020009
:1051D00008290A4617D8836893F83E10914212D0E6
:1051E00083F83E208368082AD3F8743205D09906E4
:1051F00009D50549406919F0E8BD9B0603D5034967
:10520000406919F0E2BD70471CD502006DAF020085
:1052100038B50D4609780446FFF7DAFF6A78072AA1
:1052200011D8A36893F83F1091420CD083F83F2027
:10523000A368D3F874329B0605D560690249BDE8BE
:10524000384019F0C2BD38BD25D50200F8B58368D5
:105250000446B3F85020002A55D0B3F85210002964
:1052600051D0553103F156050B441846A84206D3D8
:10527000014611F80169202E3CD0A8423CD286B2EA
:105280009DB2AB1B9BB2591C471CD21A0144384635
:1052900024F05AFDA268711BB2F85030204613FA70
:1052A00081F3A2F85030A36809B2B3F85020134438
:1052B000002283F8562019F0F2FDA368D3F8743267
:1052C0009A0603D51049606919F07FFD3B46082115
:1052D00020460E4A19F0FFFE2046FFF7FFFEA368A6
:1052E000D3F874329B060ED560690949BDE8F840D1
:1052F00019F06BBD0846B9E7014611F80169202E87
:10530000BDD00846B9E7F8BD72AF0200B7CE0200C3
:1053100076AF02002DE9F04104460D4617460AB16A
:10532000FFF7DCFEA368B3F85220D3F874125632AC
:1053300013444A0721D51846FBF75AFE0646DFF804
:105340004880A6B9A368B3F85020A3F85220A068FB
:1053500019F048FD20B107B115B16069FFF7CAFE29
:1053600069422046BDE8F04109B219F098BD4146B6
:10537000606919F02AFD013EE3E708212046034A4F
:1053800019F0A9FEDEE700BF0DE00200B7CE020073
:1053900013B583688DF80710D3F874220446D0073C
:1053A00025D5B3F85210B3F850208A421FD0481CBC
:1053B0009DF80720A3F852000B4483F85620A368F9
:1053C000D3F87412890710D5D3F87432606913F0DA
:1053D000040F18BF2A22094919F0F7FC204619F0DA
:1053E00013FD10B16069FFF785FE02B010BD012208
:1053F00020460DF1070119F07BFEF6E719D50200F2
:1054000010B5044683680221084A19F064FEA368B7
:10541000D3F874329B0707D52046FFF79DFE204640
:10542000BDE8104019F016BD10BD00BFB7CE020098
:1054300001491AF02CB800BF4FCD02002DE9F04F02
:105440000E460021044617460D4689B0304603AA91
:1054500001F10108FFF7A6FDB0B995B127B13A46B1
:105460000821204619F037FE00211E4FDFF8789002
:10547000DFF878A0304603AA01F10108FFF792FD9A
:1054800060B909B0BDE8F08F006810B1FBF7B0FD5E
:1054900080B2854238BF05464146D7E703688BB1E5
:1054A0001A787AB1D0F804B04A46CDE90053082101
:1054B0003B46204619F00FFEBBF1000F04D1606996
:1054C000FFF7B6FF4146D5E7524620463B46082146
:1054D00019F001FEAA1D5946204692B219F0E4FFC8
:1054E000F0E700BF43D502002ED50200EBC9020051
:1054F000F7B50F6805460E46A7B13846FBF778FDAD
:1055000084B2094B2846009308213B46074A19F00C
:10551000E2FD2846E21C716892B203B0BDE8F0409B
:1055200019F0C2BF3C46ECE73FD502001BD3020096
:1055300010B507490446FBF749FD38B12046054937
:10554000FBF744FDB0FA80F0400910BD0120FCE7F4
:1055500035D5020038D5020010B583680446D3F86B
:1055600074329B0603D5064940691AF014F850229C
:10557000A36800205A871822A3681A8710BD00BFAD
:105580007AAF020008B5836902491A6819F04AF92E
:10559000002008BD46D502002DE9F3410D4905461E
:1055A00019F040F900220C4C0C4EDFF83480B44264
:1055B00002F1010703D3002002B0BDE8F081636A65
:1055C00092B20093A3684146284619F02BF9303473
:1055D0003A46ECE756D50200BCAD0200ECAD020045
:1055E0006ED5020008B5024919F046F9002008BD41
:1055F00050CD020073B5044600250D4EA2680DF192
:1056000006030121E06802F5AB721AF054F8BDF808
:105610000600A36840B12A463146204603F5AB7325
:1056200019F000F90135E9E783F8560102B070BDC1
:105630007FD5020010B5044619F061F9034902460E
:10564000204619F0EFF8002010BD00BF95E70200DA
:10565000022907B50BD153680C49009312680C4B13
:1056600019F0FCF86FF0150003B05DF804FB8368D7
:10567000084AD3F87432084913F0020F074B18BFD9
:105680001A4619F0CFF80020EEE700BF9ED50200C1
:1056900089D502004ECA0200A7D50200C9CB02007C
:1056A00010B583680446D3F874329A0603D50749C7
:1056B000406919F070FFA368D3F874329B0603D5D4
:1056C0000349606919F067FF002010BD81AF020037
:1056D00086AF0200F0B50129044685B00AD05368B0
:1056E0005E49009312685E4B19F0B8F86FF0150030
:1056F00005B0F0BD8368D3F87432990603D55949D3
:10570000406919F048FF00256FF0F9012046FFF7C6
:10571000F7FCFA212046FFF709FDA0684FF48072DC
:10572000294600F5AB708DF80B5024F027FB4E494D
:10573000606919F030FF606919F0EFF84FF47A767C
:105740006068012203680DF10B011F6903ABB847C4
:10575000039BEBB9013E4FF47A70B6B223F030FEF2
:10576000002EEDD1A368D3F874329B0603D53F49D0
:10577000606919F010FF5022A36820465A8718224A
:10578000A3683B491A8719F05BF86FF00700AFE791
:105790009DF80B20A3681B2A53D093F856111B29A0
:1057A000CED1522A4DD15A19002382F85631A6681B
:1057B00096F857215B2A2BD1022506F2571010F8D4
:1057C000011F2A463B2905F10105ADB223D1FF2A6D
:1057D000C8D002F5AB7216FA82F1002211F8010F5F
:1057E00018BBFA2A28BFFA22FA2B28BFFA2386F818
:1057F0005601A1684A87A2681387A368D3F8743258
:105800009A0603D51949606919F0C5FE00206FE7B3
:1058100086F85631A6E703EB8303303901EB4301E9
:10582000B5F5807F8BB2CAD19CE7013502EB8202CD
:10583000ADB2303800EB4200B5F5807F82B2CDD1F9
:1058400090E72B440135ADB2092D83F856217FF640
:1058500077AF0022A36883F8562183E79ED5020024
:1058600089D502008CAF0200F2D5020090AF020091
:10587000B8D502002DE9F04F07461546894689B094
:1058800021B1104619F0BCFF00285BD1032455E07C
:105890005C463CE029460AF5AB7024F0C6FA0646A1
:1058A000002854D0FBF7A4FB82B2601C31460132C1
:1058B000304424F049FA22465946304624F037FA5B
:1058C0004FF020033355BAF8543008F10108013382
:1058D0001C44AAF85440002401994B1C484603AAD2
:1058E0000193FFF75FFB0646E8B1002228463168C6
:1058F0001AF072FA0028EFD1D6F800B0D7F808A055
:10590000BBF1000FC4D05846FBF772FB84B2BAF863
:1059100054302344FF2BBDDD2B46032138460D4A6E
:1059200019F0D9FB0124B8F1000F07D0B8682A4656
:1059300000F1540100F5AB7019F059F9204609B097
:10594000BDE8F08F4FF0000802244146C5E702246D
:10595000E9E700BFB4DA020070B545680669286857
:1059600023F033FD60B91F480368590703D16FF076
:105970001204204670BD01211B4A18F0FBFBF6E71C
:105980006868A8B12C1D23F020FD0028EFD0204628
:105990004FF4003119F079FF041E09DA1148036849
:1059A0005A07E6D02346114A012118F0ECFBE0E744
:1059B000E86890B10C3523F008FD0028D7D04FF4EB
:1059C000B011284619F061FF041E06DA0548036885
:1059D0005B07CED0064A2346E6E7304623F084FD37
:1059E0000024C6E7A806002006DB02001EDB02003A
:1059F00049DB020008B5044817F0EDFABDE808409D
:105A0000024817F0E8BA00BF96DB0200CBDB0200C9
:105A10002DE9F84305460C4600AF002948D0DFF8D1
:105A2000B890D9F800305A0742D0D1E900016E464B
:105A30008AB06A46A3684FF00508DFF8A0C0C2E943
:105A40000713C2E905C042F8108F00234FF421511B
:105A50004846FDF7F3F9D9F80030B5465B0727D083
:105A6000D4E903018AB06A466369DFF874C0C2E909
:105A70000713C2E905C042F8108F002348464FF4CF
:105A80002151FDF7DBF9D9F80030B54658070FD0A2
:105A9000E36901214846134A18F075FBD9F8003034
:105AA000590705D0A369012148460F4A18F06BFB3E
:105AB000012D0AD1EFF3058307480268520704D08D
:105AC0000A4A2946103B18F05EFB2146284613F08F
:105AD00055FFBD46BDE8F883B0060020F9DB0200A3
:105AE00028DC020057DC020066DC020094DC0200C5
:105AF00030BFFFF7FDBF00BF2DE9F04105460B4E5B
:105B0000DFF82C80324606EB0807CC1B20460949FB
:105B100024F00DF9A01942460021083C24F02EF98A
:105B2000C5F8C04007F10800BDE8F08100000000A2
:105B30000800000028AF0200074A936893F90E108E
:105B4000002907DB526993421FBF044A536843F0A0
:105B500080535360704700BF3C74002000ED00E0AC
:105B6000F8B5364C064623680D465B0703D0204641
:105B7000334919F0AEFF334B9B6ADF065CD52368CF
:105B8000580703D030492D4819F0A3FF11202D4BA1
:105B90009B6A190707D523685A0703D02B49274862
:105BA00019F097FF1220274FBB6A9B0719D523686E
:105BB000580703D02649214819F08BFF7B6BBA6A3E
:105BC00011060DD52268520704D00121214A1B4835
:105BD00018F0D9FA26B11B4A936A23F08003936226
:105BE0001320184B9B6ADB0707D523685F0703D098
:105BF0001949124819F06DFF1420124B9B6A9E063A
:105C000007D52368580703D014490C4819F061FFE1
:105C100015200C4B9A6AD10658BF9A6A9A6A920666
:105C200042BF5A6A22F400525A629A6A42F0FF0254
:105C30009A6200232B70F8BD1020A8E7B006002060
:105C4000A7DC020000ED00E0BDDC0200F0DC020099
:105C500003DD02001BDD020031DD020050DD020029
:105C600010B5334C2368580703D02046314919F04A
:105C700030FF314B9B6A990157D523685A0703D0EF
:105C80002E492B4819F025FF1E202B4B9B6ADB0168
:105C900007D52368580703D02949254819F019FF6B
:105CA0001F20254B9B6AD90207D523685A0703D0CA
:105CB00024491F4819F00DFF02201F4B9B6A1B034C
:105CC00007D52368580703D01F49194819F001FF69
:105CD0002120194B9B6A590307D523685A0703D023
:105CE0001A49134819F0F5FE2220134B9B6A9B03B7
:105CF00007D52368590703D015490D4819F0E9FE67
:105D000023200D4B9B6ADA0307D523685B0703D07A
:105D10001049074819F0DDFE2420074A936A6FEA0C
:105D200003436FEA1343936210BD1D20ADE700BF2C
:105D3000B00600207FDD020000ED00E097DD0200EC
:105D4000AADD0200C4DD0200EEDD02000CDE02006E
:105D500031DE02004BDE0200F8B5374C0646236800
:105D60000D465B0703D02046344919F0B2FE344B90
:105D70009B6ADF0451D52368580703D031492E4868
:105D800019F0A7FE17202E4B9B6A190507D523682B
:105D90005A0703D02C49284819F09BFE1820284F99
:105DA000BB6A9B0519D52368580703D027492248A9
:105DB00019F08FFEBB6BBA6A11040DD52268520729
:105DC00004D00121224A1C4818F0DDF926B11C4AF2
:105DD000936A23F4004393621920194B9B6A5B0575
:105DE00007D523685F0703D01A49134819F071FEDD
:105DF0001A20134B9A6AD60511D52368590703D088
:105E000015490D4819F065FE1B200D4A936A43F4AD
:105E10007F43936200232B70F8BD1620B3E79B6A83
:105E20009A04F2D523685B0703D00C49024819F0A5
:105E300050FE1C20E9E700BFB006002076DE02001D
:105E400000ED00E08CDE0200F0DC02009DDE0200CE
:105E5000B6DE0200CBDE0200E6DE020050DD02000C
:105E60002DE9F0418AB0734B0446D3F80480002535
:105E700000AFC8F3080685F31188BFF36F8F02F0F7
:105E80007F43B3F17F4F0AD102F00C03082B15D1E9
:105E900069480368590702D0684919F01AFE0025BD
:105EA0002C460023FB71F31E092B00F29E80DFE8D5
:105EB00003F00A90938C9C9C9C9C9C9612074CBF70
:105EC0000C460125EDE75C4E33685B0703D0304696
:105ED0005B4919F0FEFD0023FB71564BDA6A90070F
